:100000000C9462000C948A000C948A000C948A0070
:100010000C948A000C948A000C948A000C948A0038
:100020000C948A000C948A000C948A000C948A0028
:100030000C948A000C948A000C948A000C948A0018
:100040000C9461070C948A000C942F070C940907F8
:100050000C948A000C948A000C948A000C948A00F8
:100060000C948A000C948A000000000024002700F1
:100070002A0000000000250028002B0000000008D6
:10008000000201000003040700000000000000005F
:1000900000000000230026002900040404040404D6
:1000A0000404020202020202030303030303010227
:1000B00004081020408001020408102001020408F6
:1000C0001020AB0711241FBECFEFD8E0DEBFCDBF9D
:1000D00011E0A0E0B1E0EEEFF9E102C005900D9271
:1000E000AC3FB107D9F722E0ACEFB1E001C01D92FF
:1000F000AD3CB207E1F710E0C2E6D0E004C02197C2
:10010000FE010E94F70CC136D107C9F70E941708FB
:100110000C94FD0C0C940000CF92DF92EF92FF92B2
:10012000CF93DF93B091A902A0E08111AB2F809112
:10013000AA0290E0880F991FAC0140575F4FC09012
:10014000AF02D090B002E090B102F090B20230E085
:1001500020E0FA01C591D491E881B90190E080E0F6
:10016000EB23EA130AC02F5F3F4F6C157D058E0508
:100170009F0578F36FEF7FEFCB01DF91CF91FF9079
:10018000EF90DF90CF90089580E480937C00809181
:100190007A00806480937A0080917A0086FDFCCF9B
:1001A00080917800909179000895FC01538D448DE1
:1001B000252F30E0842F90E0821B930B541710F012
:1001C000CF96089501970895FC01918D828D98171F
:1001D00061F0A28DAE0FBF2FB11D5D968C91928DF7
:1001E0009F5F9F73928F90E008958FEF9FEF089528
:1001F000FC01918D828D981731F0828DE80FF11DF1
:10020000858D90E008958FEF9FEF0895FC01918D0B
:10021000228D892F90E0805C9F4F821B91098F7304
:1002200099270895FC01A48DA80FB92FB11DA35AD9
:10023000BF4F2C91848D90E001968F739927848F06
:10024000A689B7892C93A089B1898C918370806429
:100250008C93938D848D981306C00288F389E02DCA
:1002600080818F7D80830895EF92FF920F931F937B
:10027000CF93DF93EC0181E0888F9B8D8C8D981359
:100280001AC0E889F989808185FF15C09FB7F89465
:10029000EE89FF896083E889F989808183708064B1
:1002A00080839FBF81E090E0DF91CF911F910F91FC
:1002B000FF90EF900895F62E0B8D10E00F5F1F4F0B
:1002C0000F731127E02E8C8D8E110CC00FB607FC1A
:1002D000FACFE889F989808185FFF5CFCE010E94A8
:1002E0001201F1CFEB8DEC0FFD2FF11DE35AFF4F03
:1002F000F0829FB7F8940B8FEA89FB898081806236
:10030000CFCFCF93DF93EC01888D8823B9F0AA89F2
:10031000BB89E889F9898C9185FD03C0808186FDC0
:100320000DC00FB607FCF7CF8C9185FFF2CF80810F
:1003300085FFEDCFCE010E941201E9CFDF91CF9171
:10034000089585E092E00E94060121E0892B09F4DE
:1003500020E0822F089580E090E0892B29F00E9410
:10036000A10181110C9400000895AF92BF92CF9229
:10037000DF92EF92FF920F931F93CF93DF936C0165
:100380007B018B01040F151FEB015E01AE18BF0846
:10039000C017D10759F06991D601ED91FC910190F8
:1003A000F081E02DC6010995892B79F7C501DF9110
:1003B000CF911F910F91FF90EF90DF90CF90BF9062
:1003C000AF900895833081F028F4813099F0823025
:1003D000A9F008958730A9F08830C9F08430B1F4CD
:1003E000809180008F7D03C0809180008F77809303
:1003F0008000089584B58F7784BD089584B58F7D7E
:10040000FBCF8091B0008F778093B00008958091EA
:10041000B0008F7DF9CFCF93DF93282F30E0F90123
:10042000E458FF4F8491F901E255FF4FD491F9014F
:10043000E656FF4FC491CC23A1F081110E94E20146
:10044000EC2FF0E0EE0FFF1FE057FF4FA591B491A6
:10045000EC91ED2381E090E009F480E0DF91CF9111
:10046000089580E090E0FACF1F93CF93DF93282F79
:1004700030E0F901E458FF4F8491F901E255FF4F54
:10048000D491F901E656FF4FC491CC23A9F0162F61
:1004900081110E94E201EC2FF0E0EE0FFF1FEE58F9
:1004A000FF4FA591B4918FB7F894EC91111108C04A
:1004B000D095DE23DC938FBFDF91CF911F910895FC
:1004C000DE2BF8CFCF93DF9390E0FC01E255FF4F96
:1004D000249186569F4FFC0184918823C9F090E0B7
:1004E000880F991FFC01E859FF4FA591B491FC01B9
:1004F000EE58FF4FC591D49161110DC09FB7F8948C
:100500008C91209582238C938881282328839FBFF8
:10051000DF91CF910895623051F49FB7F8943C91E8
:10052000822F809583238C93E8812E2BEFCF8FB77A
:10053000F894EC912E2B2C938FBFEACF1F93CF937F
:10054000DF93182FEB0161E00E946202209739F4DB
:1005500060E0812FDF91CF911F910C943402CF3F47
:10056000D10511F461E0F5CFE12FF0E0E458FF4F41
:10057000E491E33031F140F4E130B1F0E230E1F008
:10058000C038D1057CF7E4CFE73029F1E83059F1E4
:10059000E430B1F780918000806280938000D09336
:1005A0008B00C0938A0004C084B5806884BDC7BD39
:1005B000DF91CF911F91089584B5806284BDC8BD3D
:1005C000F7CF80918000806880938000D09389006D
:1005D000C0938800EDCF8091B00080688093B00018
:1005E000C093B300E5CF8091B00080628093B000EB
:1005F000C093B400DDCF3FB7F8948091FD01909196
:10060000FE01A091FF01B091000226B5A89B05C094
:100610002F3F19F00196A11DB11D3FBFBA2FA92F81
:10062000982F8827BC01CD01620F711D811D911D7E
:1006300042E0660F771F881F991F4A95D1F70895EA
:100640008F929F92AF92BF92CF92DF92EF92FF92E2
:100650004B015C010E94FB026B017C010E94FB02CA
:100660006C197D098E099F09683E734081059105CB
:10067000A8F321E0821A9108A108B10888EEC80EFB
:1006800083E0D81EE11CF11C81149104A104B10483
:1006900029F7FF90EF90DF90CF90BF90AF909F90A1
:1006A0008F900895CF92DF92EF92FF920F931F9356
:1006B000CF93DF93CDB7DEB7C054D1400FB6F894D7
:1006C000DEBF0FBECDBF2FB7F8948091010290918D
:1006D0000202A0910302B09104022FBF4091AB022D
:1006E0005091AC026091AD027091AE028C019D01FF
:1006F000041B150B260B370BB901A801403D5740D1
:100700006105710590F48091B302C05CDE4F0FB6B5
:10071000F894DEBF0FBECDBFDF91CF911F910F9137
:10072000FF90EF90DF90CF9008958093AB0290936D
:10073000AC02A093AD02B093AE021092A60210924A
:10074000A5021092A4021092A3021092A20262E0EB
:100750008091A7020E94620261E070E080E090E078
:100760000E94200361E08091A7020E94620260E083
:100770008091A7020E9434028091A80285518230A4
:1007800020F58BE291E10197F1F762E08091A702F9
:100790000E9462028091B40290E08230910538F0AC
:1007A000880F991F880F991F05970197F1F7F89403
:1007B00080E00E948C006F3F7F4F8F4F9F4F61F40E
:1007C0001092B302789480E0A0CF64E170E080E002
:1007D00090E00E942003D9CF81E00E948C006F3FFF
:1007E0007F4F8F4F9F4F61F38E010F5F1F4F6E0141
:1007F0008FEBC81A8EEFD80A780180E00E948C0037
:10080000F701608371838283938381E00E948C006F
:10081000F7016483758386839783F8E0EF0EF11CFC
:10082000EC14FD0451F7789430E020E0F801C0802A
:10083000D180E280F3804481558166817781FFEF2A
:10084000CF16DF06EF06FF0631F04F3F8FEF580758
:100850006807780719F41092B302B5CFF90183E065
:10086000F595E7958A95E1F7EE55FD4F8081880F64
:10087000C416D506E606F70610F180832F5F3F4FBA
:10088000085F1F4F2832310589F64091A60220915A
:10089000A2028091A302280F3327331F8091A40264
:1008A000280F311D8091A502820F932F911D99274A
:1008B0004817190681F681E08093B30226CF816044
:1008C000DCCFCF92DF92EF92FF920E9452038823F7
:1008D00049F08091A8028B3028F08D3040F085518E
:1008E000823030F160E070E080EC9FE71CC06091E6
:1008F000A30270E090E080E00E94A20B2DEC3CECA3
:100900004CEC5DE30E94570C6B017C016091A202EC
:1009100070E090E080E00E94A20B9B01AC01C70157
:10092000B6010E94000BFF90EF90DF90CF900895EA
:100930006091A2027091A30276276727762790E044
:1009400080E00E94A00B2DEC3CEC4CEC5DE30E949F
:10095000570CE9CFCF92DF92EF92FF92CF930E9494
:100960005203882341F08091A8028C3009F44FC0D3
:1009700038F48B30F1F060E070E080EC9FE741C02C
:1009800085518230C0F7C091A4026C2F70E0762FA1
:10099000662766277F778091A502682B90E080E02C
:1009A0000E94A00B2DEC3CEC4CEC5DE30E94570C3C
:1009B0004AC06091A40270E090E080E00E94A00B29
:1009C0006B017C01C091A502C7FF0AC0AC019B016D
:1009D00060E070E080E89FEB0E94FF0A6B017C0101
:1009E000CF706C2F70E090E080E00E94A20B2DECA5
:1009F0003CEC4CEC5DE30E94570CA70196010E9471
:100A0000000BCF91FF90EF90DF90CF900895C091B1
:100A1000A4026C2F70E090E080E00E94A00B6B01BC
:100A20007C016091A5026F7070E090E080E00E9410
:100A3000A20B2DEC3CEC4CEC5DE30E94570CA701A3
:100A400096010E94000BC7FFDCCF9058DACF0895C3
:100A500090E080E008958F929F92AF92BF920F93A3
:100A60001F93CF93DF93CDB7DEB7A1970FB6F8945E
:100A7000DEBF0FBECDBF19A2423008F44AE08E019E
:100A80000F5D1F4F842E912CB12CA12CA501940138
:100A90000E94D50CE62FB901CA01EA3044F5E05DA9
:100AA000D801EE938D01232B242B252B79F790E091
:100AB00080E0109769F0FD0101900020E9F731977F
:100AC000AF014A1B5B0BBD0185EB92E00E94B501B3
:100AD000A1960FB6F894DEBF0FBECDBFDF91CF91C8
:100AE0001F910F91BF90AF909F908F900895E95CF8
:100AF000D7CFFC0101900020E9F73197AF01481BE7
:100B0000590BBC0185EB92E00C94B501CF93DF93B8
:100B1000EC0160E08E810E94340261E08E810E94CF
:100B2000340260E08E810E9434028BE891E00197EC
:100B3000F1F7DF91CF910895CF92DF92EF92FF927C
:100B40000F931F93CF93DF936C017C0187E0E80E36
:100B5000F11CD0E0C0E0062F10E0B8010C2E02C05E
:100B6000759567950A94E2F76170F70181917F01AD
:100B70000E9434022196C430D10579F7C601DF9175
:100B8000CF911F910F91FF90EF90DF90CF900C9439
:100B90008605CF92DF92EF92FF920F931F93CF9330
:100BA000DF93EC01F62E642F8C810E9434028D813C
:100BB0008F3F19F060E00E9434020F2D10E08F8506
:100BC00084FF25C06E0187E0C80ED11CF12CE12CFA
:100BD000B8010E2C02C0759567950A94E2F7617012
:100BE000F60181916F010E943402FFEFEF1AFF0AB4
:100BF00088E0E816F10461F7CE01DF91CF911F91F3
:100C00000F91FF90EF90DF90CF900C948605B80184
:100C100084E0759567958A95E1F7CE010E949C0561
:100C20006F2DCE01DF91CF911F910F91FF90EF902B
:100C3000DF90CF900C949C0540E0682F85EB92E00C
:100C40000C94C90581E00E941C068BE39FE101978B
:100C5000F1F70895CF93DF93823029F49091C40285
:100C600098609093C4028093C8021092C90280E4F5
:100C70008093CA0280E18093CB0280E58093CC020E
:100C800061E08091B9020E9462028091BA028F3FB6
:100C900019F061E00E94620261E08091BB020E9453
:100CA0006202C5EBD2E09E01255B32408091C40216
:100CB00084FD0BC084E090E021962817390744F4A6
:100CC00061E08E810E946202EECF88E090E0F4CF76
:100CD0008BE39DE00197F1F760E08091B9020E94FB
:100CE000340260E08091BB020E9434028091BA021B
:100CF0008F3F19F060E00E9434028091C40284FDAD
:100D000034C063E085EB92E00E949C05CBE4D6E41E
:100D1000CE010197F1F763E085EB92E00E949C051C
:100D20002197F1F763E085EB92E00E949C0583E553
:100D300092E00197F1F762E085EB92E00E949C055A
:100D40008091C40280620E941C0684E08093C502E8
:100D50008CE00E941C060E94220682E08093C6025C
:100D600086E0DF91CF910C941C0680620E941C06E5
:100D70008BE496E40197F1F78091C40280620E94AF
:100D80001C0683E592E00197F1F78091C40280622E
:100D90000E941C06D5CF9091C802691710F06FEF22
:100DA000690FE62FF0E0EB54FD4F9489890F8068BE
:100DB0000C941C0641E00E94C90581E090E0089572
:100DC000CF92DF92EF92FF926C01990FEE08FF082D
:100DD000F7FE16C041E06DE285EB92E00E94C90586
:100DE00066277727CB016C197D098E099F094AE098
:100DF0000E942B050196FF90EF90DF90CF90089511
:100E00004AE0C701B601FF90EF90DF90CF900C94BD
:100E10002B051F920F920FB60F9211242F933F9321
:100E20004F935F936F937F938F939F93AF93BF93F2
:100E3000EF93FF9385E092E00E941201FF91EF9102
:100E4000BF91AF919F918F917F916F915F914F91E2
:100E50003F912F910F900FBE0F901F9018951F92EA
:100E60000F920FB60F9211242F938F939F93EF93AE
:100E7000FF93E0911502F09116028081E0911B0230
:100E8000F0911C0282FD1BC0908180911E028F5F39
:100E90008F7320911F02821741F0E0911E02F0E053
:100EA000EB5FFD4F958F80931E02FF91EF919F9115
:100EB0008F912F910F900FBE0F901F9018958081EA
:100EC000F4CF1F920F920FB60F9211242F933F93DE
:100ED0008F939F93AF93BF938091010290910202F1
:100EE000A0910302B09104023091FC0123E0230F92
:100EF0002D3758F50196A11DB11D2093FC0180935B
:100F0000010290930202A0930302B0930402809125
:100F1000FD019091FE01A091FF01B09100020196A8
:100F2000A11DB11D8093FD019093FE01A093FF01CF
:100F3000B0930002BF91AF919F918F913F912F91FC
:100F40000F900FBE0F901F90189526E8230F029662
:100F5000A11DB11DD2CFCF93E5E0F2E01382128242
:100F600088EE93E0A0E0B0E084839583A683B78306
:100F700084E291E09183808385EC90E0958784877B
:100F800084EC90E09787868780EC90E0918B808B53
:100F900081EC90E0938B828B82EC90E0958B848B3C
:100FA00086EC90E0978B868B118E128E138E148EAA
:100FB000E5EBF2E01382128286E391E09183808375
:100FC0008CE084838FEF8583CBE0C68385E08783C5
:100FD00084E0808783E0818782E08287138614869D
:100FE00015861686178681E00E942A06A2EAB2E0DC
:100FF00088E015968C9315971696CC931697E6EB8A
:10100000F0E0E4911796EC931797E2EAF0E0E491B0
:101010001896EC93189740E85EE360E070E01D9648
:101020004D935D936D937C935097CF9108957894F1
:1010300084B5826084BD84B5816084BD85B58260DD
:1010400085BD85B5816085BD80916E00816080938E
:101050006E001092810080918100826080938100F7
:101060008091810081608093810080918000816007
:10107000809380008091B10084608093B100809162
:10108000B00081608093B00080917A00846080938A
:101090007A0080917A00826080937A0080917A0051
:1010A000816080937A0080917A00806880937A00D2
:1010B0001092C10082E00E942A0662E08091A7029D
:1010C0000E9462022FB7F89480910102909102026F
:1010D000A0910302B09104022FBF805D9740A10947
:1010E000B1098093AB029093AC02A093AD02B09390
:1010F000AE0287E38093B40260E089E00E9462025E
:1011000000E010E08FEDF82E0E94C4008935924077
:101110003CF089E00E940B02019719F50E9422061B
:101120000E94C400883C910544F489E00E940B02AF
:10113000019709F043C00E94220689E00E940B0239
:10114000019709F068C060E080E00E94CB0685E668
:1011500091E00E9479056FEF70E086E00E949E02A8
:10116000ECCF6CE271E080E090E00E9420030E94EE
:1011700022060E94C400EC0160E080E00E94CB06E1
:101180008EE391E00E947905CE010E94E00661E0C5
:1011900080E00E94CB0688E491E00E9479056AE035
:1011A00070E08AE00E949E0260E087E00E943402C4
:1011B00070E060E086E00E949E02A6CF6CE271E0E3
:1011C00080E090E00E9420030E9422060E94C4005A
:1011D000EC0160E080E00E94CB068EE391E00E948B
:1011E0007905CE010E94E00661E080E00E94CB0616
:1011F00085E591E00E9479056FEF70E08AE00E943A
:101200009E0260E087E00E94340270E060E086E0C9
:101210000E949E0285CF0E94220670E060E086E078
:101220000E949E0260E087E00E9434026FE770E057
:101230008AE00E949E020E9461040E94710BC62FE8
:101240000E94AA040E94710BD62F6C2F70E090E0D0
:1012500080E00E94A00B9B01AC010E94C40C811194
:101260000CC06D2F70E090E080E00E94A00B9B010D
:10127000AC010E94C40C8823B1F00E94220660E0F9
:1012800085E00E94CB0686E791E00E947905011572
:10129000110509F439CF0E94A101882309F434CF44
:1012A0000E94000031CF2AE08D2F622F0E94C90CCE
:1012B000805D80931701905D90931801F0921B015F
:1012C0008C2F0E94C90C805D80930701905D9093E4
:1012D000080160E080E00E94CB0680E191E00E947E
:1012E000790561E080E00E94CB0680E091E00E94F9
:1012F00079056CE271E080E090E00E9420030E949A
:101300002206D73108F442C089E00E940B020197FF
:10131000D9F489E00E940B020197B1F46CE271E00C
:1013200080E090E00E9420030E94220660E080E0BE
:101330000E94CB0685E691E00E9479056FEF70E090
:1013400086E00E949E02E5CF0E94AA0420E030E0E1
:1013500048EB51E40E946C0B87FF5CC00E942206A0
:1013600060E080E00E94CB068CE791E00E94790566
:1013700061E080E00E94CB0689E891E00E94790557
:1013800068EE73E080E090E00E942003D23108F024
:1013900087C070E060E086E00E949E0261E087E026
:1013A0000E9434026CE271E080E090E00E94200331
:1013B0000E94220660E080E00E94CB068FEA91E066
:1013C0000E94790561E080E00E94CB0689EB91E004
:1013D0000E94790589E00E940B020197C9F589E016
:1013E0000E940B020197A1F56CE271E080E090E0B1
:1013F0000E9420030E94220660E080E00E94CB064B
:1014000085E691E00E9479056FEF70E086E00E942A
:101410009E02E5CF6CE271E080E090E00E94200344
:101420000E94220660E080E00E94CB0688E991E0FD
:101430000E94790561E080E00E94CB0681EA91E09C
:101440000E9479056FEF70E086E00E949E0259CFFE
:101450000E94AA0420E030E048E851E40E94520CC7
:1014600018160CF093CF0E94220660E080E00E94E4
:10147000CB068CE791E00E94790561E080E00E9454
:10148000CB0683EC91E00E94790568EE73E080E082
:1014900090E00E94200370E060E086E00E949E02DF
:1014A000CD3308F465C06FEF70E086E00E949E02C5
:1014B0006CE271E080E090E00E9420030E9422062E
:1014C00060E080E00E94CB068EEC91E00E947905FE
:1014D00061E080E00E94CB0681EA91E00E947905FC
:1014E00089E00E940B020197D9F489E00E940B0267
:1014F0000197B1F46CE271E080E090E00E9420037B
:101500000E94220660E080E00E94CB0685E691E022
:101510000E9479056FEF70E086E00E949E02E5CFA1
:101520000E94610420E030E044E752E40E946C0B2A
:1015300087FF12C00E94220660E080E00E94CB0676
:1015400089ED91E00E94790561E080E00E94CB0680
:1015500089E891E00E94790568EE73E080E090E010
:101560000E94200370E060E086E00E949E028FCE21
:10157000C83208F08CCE6CE271E080E090E00E940E
:1015800020030E94220660E080E00E94CB068AEEE3
:1015900091E00E94790589E00E940B020197D9F43D
:1015A00089E00E940B020197B1F46CE271E080E0E7
:1015B00090E00E9420030E94220660E080E00E94EA
:1015C000CB0685E691E00E9479056FEF70E086E03A
:1015D0000E949E02E5CF0E94610420E030E04CE1D1
:1015E00052E40E94520C18160CF0B6CF0E9422064C
:1015F00060E080E00E94CB0689ED91E0ABCF5058CF
:10160000BB27AA270E94170B0C94180C0E940A0CE7
:1016100038F00E94110C20F039F49F3F19F426F4A1
:101620000C94070C0EF4E095E7FB0C94010CE92FE9
:101630000E94290C58F3BA176207730784079507AD
:1016400020F079F4A6F50C944B0C0EF4E0950B2EDB
:10165000BA2FA02D0B01B90190010C01CA01A00104
:101660001124FF27591B99F0593F50F4503E68F15F
:101670001A16F040A22F232F342F4427585FF3CFA0
:10168000469537952795A795F0405395C9F77EF471
:101690001F16BA0B620B730B840BBAF09150A1F0BA
:1016A000FF0FBB1F661F771F881FC2F70EC0BA0F40
:1016B000621F731F841F48F4879577956795B795C8
:1016C000F7959E3F08F0B0CF9395880F08F09927C3
:1016D000EE0F9795879508950E94DD0B08F481E041
:1016E00008950E94310C88F09F5798F0B92F9927E0
:1016F000B751B0F0E1F0660F771F881F991F1AF0FD
:10170000BA95C9F714C0B13091F00E944B0CB1E00A
:1017100008950C944B0C672F782F8827B85F39F009
:10172000B93FCCF3869577956795B395D9F73EF495
:1017300090958095709561957F4F8F4F9F4F08953D
:10174000E89409C097FB3EF490958095709561955B
:101750007F4F8F4F9F4F9923A9F0F92F96E9BB2711
:101760009395F695879577956795B795F111F8CF8D
:10177000FAF4BB0F11F460FF1BC06F5F7F4F8F4FF8
:101780009F4F16C0882311F096E911C0772321F0EE
:101790009EE8872F762F05C0662371F096E8862F86
:1017A00070E060E02AF09A95660F771F881FDAF7DD
:1017B000880F9695879597F90895990F0008550F0A
:1017C000AA0BE0E8FEEF16161706E807F907C0F0C7
:1017D00012161306E407F50798F0621B730B840BCF
:1017E000950B39F40A2661F0232B242B252B21F4A9
:1017F00008950A2609F4A140A6958FEF811D811D49
:10180000089597F99F6780E870E060E008959FEF82
:1018100080EC089500240A94161617061806090687
:10182000089500240A941216130614060506089556
:10183000092E0394000C11F4882352F0BB0F40F4DE
:10184000BF2B11F460FF04C06F5F7F4F8F4F9F4F1E
:10185000089557FD9058440F551F59F05F3F71F0A0
:101860004795880F97FB991F61F09F3F79F0879507
:101870000895121613061406551FF2CF4695F1DF90
:1018800008C0161617061806991FF1CF8695710520
:10189000610508940895E894BB2766277727CB0154
:1018A00097F908950E94DD0B08F48FEF08950E94C8
:1018B0006A0C0C94180C0E940A0C38F00E94110C4F
:1018C00020F0952311F00C94010C0C94070C1124BA
:1018D0000C944C0C0E94290C70F3959FC1F3950F4A
:1018E00050E0551F629FF001729FBB27F00DB11DA4
:1018F000639FAA27F00DB11DAA1F649F6627B00D34
:10190000A11D661F829F2227B00DA11D621F739F1C
:10191000B00DA11D621F839FA00D611D221F749F2A
:101920003327A00D611D231F849F600D211D822F71
:10193000762F6A2F11249F5750409AF0F1F0882398
:101940004AF0EE0FFF1FBB1F661F771F881F9150C5
:101950005040A9F79E3F510580F00C94010C0C9467
:101960004C0C5F3FE4F3983ED4F3869577956795EA
:10197000B795F795E7959F5FC1F7FE2B880F911DEF
:101980009695879597F908950E94DD0B880B990B22
:101990000895991B79E004C0991F961708F0961BCB
:1019A000881F7A95C9F780950895A1E21A2EAA1B7F
:1019B000BB1BFD010DC0AA1FBB1FEE1FFF1FA217FF
:1019C000B307E407F50720F0A21BB30BE40BF50BFC
:1019D000661F771F881F991F1A9469F76095709585
:1019E000809590959B01AC01BD01CF010895EE0F4C
:0E19F000FF1F0590F491E02D0994F894FFCFAD
:1019FE0052482020203D2030302E3020252020003F
:101A0E0054656D70203D2030302E30204320200054
:101A1E00000000003401B501D50081010601E4008B
:101A2E00F80000000000DA06B501280527054C6411
:101A3E0072206F75743D20004C6F776572206C6953
:101A4E006768742100496E637265617365206C6905
:101A5E00676874210047617320446574656374651B
:101A6E006420596573004572726F720054656D7013
:101A7E00206F7074696D616C0046616E20747572B2
:101A8E006E6564206F666600546F6F20686F7421F8
:101A9E000046616E207475726E6564206F6E005420
:101AAE006F6F20636F6C64210048656174657220EE
:101ABE006F6E00486561746572206F666600546FC4
:101ACE006F2068756D6964210048756D696469746D
:101ADE0079206F7074696D616C0048756D69646909
:0C1AEE00747920746F6F206C6F772100FA
:00000001FF
